{
  "_format": "hh-sol-artifact-1",
  "contractName": "WineSupplyChain",
  "sourceName": "contracts/WineSupplyChain.sol",
  "abi": [
    {
      "inputs": [],
      "stateMutability": "nonpayable",
      "type": "constructor"
    },
    {
      "inputs": [],
      "name": "AccessControlBadConfirmation",
      "type": "error"
    },
    {
      "inputs": [
        {
          "internalType": "address",
          "name": "account",
          "type": "address"
        },
        {
          "internalType": "bytes32",
          "name": "neededRole",
          "type": "bytes32"
        }
      ],
      "name": "AccessControlUnauthorizedAccount",
      "type": "error"
    },
    {
      "anonymous": false,
      "inputs": [
        {
          "indexed": true,
          "internalType": "uint256",
          "name": "batchId",
          "type": "uint256"
        },
        {
          "indexed": true,
          "internalType": "address",
          "name": "producer",
          "type": "address"
        }
      ],
      "name": "BatchRegistered",
      "type": "event"
    },
    {
      "anonymous": false,
      "inputs": [
        {
          "indexed": true,
          "internalType": "bytes32",
          "name": "role",
          "type": "bytes32"
        },
        {
          "indexed": true,
          "internalType": "bytes32",
          "name": "previousAdminRole",
          "type": "bytes32"
        },
        {
          "indexed": true,
          "internalType": "bytes32",
          "name": "newAdminRole",
          "type": "bytes32"
        }
      ],
      "name": "RoleAdminChanged",
      "type": "event"
    },
    {
      "anonymous": false,
      "inputs": [
        {
          "indexed": true,
          "internalType": "bytes32",
          "name": "role",
          "type": "bytes32"
        },
        {
          "indexed": true,
          "internalType": "address",
          "name": "account",
          "type": "address"
        },
        {
          "indexed": true,
          "internalType": "address",
          "name": "sender",
          "type": "address"
        }
      ],
      "name": "RoleGranted",
      "type": "event"
    },
    {
      "anonymous": false,
      "inputs": [
        {
          "indexed": true,
          "internalType": "bytes32",
          "name": "role",
          "type": "bytes32"
        },
        {
          "indexed": true,
          "internalType": "address",
          "name": "account",
          "type": "address"
        },
        {
          "indexed": true,
          "internalType": "address",
          "name": "sender",
          "type": "address"
        }
      ],
      "name": "RoleRevoked",
      "type": "event"
    },
    {
      "anonymous": false,
      "inputs": [
        {
          "indexed": true,
          "internalType": "uint256",
          "name": "batchId",
          "type": "uint256"
        },
        {
          "indexed": false,
          "internalType": "enum WineSupplyChain.Status",
          "name": "newStatus",
          "type": "uint8"
        },
        {
          "indexed": true,
          "internalType": "address",
          "name": "updatedBy",
          "type": "address"
        }
      ],
      "name": "StatusUpdated",
      "type": "event"
    },
    {
      "inputs": [],
      "name": "DEFAULT_ADMIN_ROLE",
      "outputs": [
        {
          "internalType": "bytes32",
          "name": "",
          "type": "bytes32"
        }
      ],
      "stateMutability": "view",
      "type": "function"
    },
    {
      "inputs": [],
      "name": "DISTRIBUTOR_ROLE",
      "outputs": [
        {
          "internalType": "bytes32",
          "name": "",
          "type": "bytes32"
        }
      ],
      "stateMutability": "view",
      "type": "function"
    },
    {
      "inputs": [],
      "name": "PRODUCER_ROLE",
      "outputs": [
        {
          "internalType": "bytes32",
          "name": "",
          "type": "bytes32"
        }
      ],
      "stateMutability": "view",
      "type": "function"
    },
    {
      "inputs": [],
      "name": "RETAILER_ROLE",
      "outputs": [
        {
          "internalType": "bytes32",
          "name": "",
          "type": "bytes32"
        }
      ],
      "stateMutability": "view",
      "type": "function"
    },
    {
      "inputs": [
        {
          "internalType": "uint256",
          "name": "",
          "type": "uint256"
        },
        {
          "internalType": "uint256",
          "name": "",
          "type": "uint256"
        }
      ],
      "name": "batchHistory",
      "outputs": [
        {
          "internalType": "enum WineSupplyChain.Status",
          "name": "status",
          "type": "uint8"
        },
        {
          "internalType": "address",
          "name": "updatedBy",
          "type": "address"
        },
        {
          "internalType": "uint256",
          "name": "timestamp",
          "type": "uint256"
        }
      ],
      "stateMutability": "view",
      "type": "function"
    },
    {
      "inputs": [
        {
          "internalType": "uint256",
          "name": "",
          "type": "uint256"
        }
      ],
      "name": "batches",
      "outputs": [
        {
          "internalType": "uint256",
          "name": "batchId",
          "type": "uint256"
        },
        {
          "internalType": "address",
          "name": "producer",
          "type": "address"
        },
        {
          "internalType": "string",
          "name": "origin",
          "type": "string"
        },
        {
          "internalType": "string",
          "name": "grapeType",
          "type": "string"
        },
        {
          "internalType": "uint16",
          "name": "productionYear",
          "type": "uint16"
        },
        {
          "internalType": "address",
          "name": "currentOwner",
          "type": "address"
        },
        {
          "internalType": "enum WineSupplyChain.Status",
          "name": "currentStatus",
          "type": "uint8"
        }
      ],
      "stateMutability": "view",
      "type": "function"
    },
    {
      "inputs": [
        {
          "internalType": "uint256",
          "name": "batchId",
          "type": "uint256"
        }
      ],
      "name": "getBatchHistory",
      "outputs": [
        {
          "components": [
            {
              "internalType": "enum WineSupplyChain.Status",
              "name": "status",
              "type": "uint8"
            },
            {
              "internalType": "address",
              "name": "updatedBy",
              "type": "address"
            },
            {
              "internalType": "uint256",
              "name": "timestamp",
              "type": "uint256"
            }
          ],
          "internalType": "struct WineSupplyChain.BatchEvent[]",
          "name": "",
          "type": "tuple[]"
        }
      ],
      "stateMutability": "view",
      "type": "function"
    },
    {
      "inputs": [
        {
          "internalType": "address",
          "name": "producerAddr",
          "type": "address"
        }
      ],
      "name": "getProducerBatches",
      "outputs": [
        {
          "internalType": "uint256[]",
          "name": "",
          "type": "uint256[]"
        }
      ],
      "stateMutability": "view",
      "type": "function"
    },
    {
      "inputs": [
        {
          "internalType": "bytes32",
          "name": "role",
          "type": "bytes32"
        }
      ],
      "name": "getRoleAdmin",
      "outputs": [
        {
          "internalType": "bytes32",
          "name": "",
          "type": "bytes32"
        }
      ],
      "stateMutability": "view",
      "type": "function"
    },
    {
      "inputs": [
        {
          "internalType": "bytes32",
          "name": "role",
          "type": "bytes32"
        },
        {
          "internalType": "address",
          "name": "account",
          "type": "address"
        }
      ],
      "name": "grantRole",
      "outputs": [],
      "stateMutability": "nonpayable",
      "type": "function"
    },
    {
      "inputs": [
        {
          "internalType": "bytes32",
          "name": "role",
          "type": "bytes32"
        },
        {
          "internalType": "address",
          "name": "account",
          "type": "address"
        }
      ],
      "name": "hasRole",
      "outputs": [
        {
          "internalType": "bool",
          "name": "",
          "type": "bool"
        }
      ],
      "stateMutability": "view",
      "type": "function"
    },
    {
      "inputs": [
        {
          "internalType": "address",
          "name": "",
          "type": "address"
        },
        {
          "internalType": "uint256",
          "name": "",
          "type": "uint256"
        }
      ],
      "name": "producerBatches",
      "outputs": [
        {
          "internalType": "uint256",
          "name": "",
          "type": "uint256"
        }
      ],
      "stateMutability": "view",
      "type": "function"
    },
    {
      "inputs": [
        {
          "internalType": "uint256",
          "name": "batchId",
          "type": "uint256"
        },
        {
          "internalType": "string",
          "name": "origin",
          "type": "string"
        },
        {
          "internalType": "string",
          "name": "grapeType",
          "type": "string"
        },
        {
          "internalType": "uint16",
          "name": "productionYear",
          "type": "uint16"
        }
      ],
      "name": "registerBatch",
      "outputs": [],
      "stateMutability": "nonpayable",
      "type": "function"
    },
    {
      "inputs": [
        {
          "internalType": "bytes32",
          "name": "role",
          "type": "bytes32"
        },
        {
          "internalType": "address",
          "name": "callerConfirmation",
          "type": "address"
        }
      ],
      "name": "renounceRole",
      "outputs": [],
      "stateMutability": "nonpayable",
      "type": "function"
    },
    {
      "inputs": [
        {
          "internalType": "bytes32",
          "name": "role",
          "type": "bytes32"
        },
        {
          "internalType": "address",
          "name": "account",
          "type": "address"
        }
      ],
      "name": "revokeRole",
      "outputs": [],
      "stateMutability": "nonpayable",
      "type": "function"
    },
    {
      "inputs": [
        {
          "internalType": "bytes4",
          "name": "interfaceId",
          "type": "bytes4"
        }
      ],
      "name": "supportsInterface",
      "outputs": [
        {
          "internalType": "bool",
          "name": "",
          "type": "bool"
        }
      ],
      "stateMutability": "view",
      "type": "function"
    },
    {
      "inputs": [
        {
          "internalType": "uint256",
          "name": "batchId",
          "type": "uint256"
        },
        {
          "internalType": "enum WineSupplyChain.Status",
          "name": "newStatus",
          "type": "uint8"
        }
      ],
      "name": "updateStatus",
      "outputs": [],
      "stateMutability": "nonpayable",
      "type": "function"
    },
    {
      "inputs": [
        {
          "internalType": "uint256",
          "name": "batchId",
          "type": "uint256"
        }
      ],
      "name": "viewBatch",
      "outputs": [
        {
          "components": [
            {
              "internalType": "uint256",
              "name": "batchId",
              "type": "uint256"
            },
            {
              "internalType": "address",
              "name": "producer",
              "type": "address"
            },
            {
              "internalType": "string",
              "name": "origin",
              "type": "string"
            },
            {
              "internalType": "string",
              "name": "grapeType",
              "type": "string"
            },
            {
              "internalType": "uint16",
              "name": "productionYear",
              "type": "uint16"
            },
            {
              "internalType": "address",
              "name": "currentOwner",
              "type": "address"
            },
            {
              "internalType": "enum WineSupplyChain.Status",
              "name": "currentStatus",
              "type": "uint8"
            }
          ],
          "internalType": "struct WineSupplyChain.WineBatch",
          "name": "",
          "type": "tuple"
        }
      ],
      "stateMutability": "view",
      "type": "function"
    }
  ],
  "bytecode": "0x608060405234801561001057600080fd5b506100246000801b3361002a60201b60201c565b50610199565b600061003c838361012760201b60201c565b61011c57600160008085815260200190815260200160002060000160008473ffffffffffffffffffffffffffffffffffffffff1673ffffffffffffffffffffffffffffffffffffffff16815260200190815260200160002060006101000a81548160ff0219169083151502179055506100b961019160201b60201c565b73ffffffffffffffffffffffffffffffffffffffff168273ffffffffffffffffffffffffffffffffffffffff16847f2f8788117e7eff1d82e926ec794901d17c78024a50270940304540a733656f0d60405160405180910390a460019050610121565b600090505b92915050565b600080600084815260200190815260200160002060000160008373ffffffffffffffffffffffffffffffffffffffff1673ffffffffffffffffffffffffffffffffffffffff16815260200190815260200160002060009054906101000a900460ff16905092915050565b600033905090565b612fc2806101a86000396000f3fe608060405234801561001057600080fd5b50600436106101165760003560e01c806391d14854116100a2578063c7a8ccb111610071578063c7a8ccb11461031f578063cb3e1fe71461034f578063d547741f1461036d578063e69422be14610389578063f0bd87cc146103b957610116565b806391d148541461026b5780639b9cb3df1461029b578063a217fddf146102cb578063b32c4d8d146102e957610116565b806336568abe116100e957806336568abe146101b55780633a1b3d31146101d157806349eb1134146101ed5780638b40dca71461021d5780639000cb961461023957610116565b806301ffc9a71461011b5780632115e7bf1461014b578063248a9ca3146101695780632f2ff15d14610199575b600080fd5b61013560048036038101906101309190611ceb565b6103d7565b6040516101429190611d33565b60405180910390f35b610153610451565b6040516101609190611d67565b60405180910390f35b610183600480360381019061017e9190611dae565b610475565b6040516101909190611d67565b60405180910390f35b6101b360048036038101906101ae9190611e39565b610494565b005b6101cf60048036038101906101ca9190611e39565b6104b6565b005b6101eb60048036038101906101e69190611ed4565b610531565b005b61020760048036038101906102029190611f14565b610de0565b6040516102149190611f63565b60405180910390f35b610237600480360381019061023291906120fe565b610e11565b005b610253600480360381019061024e919061219d565b6111eb565b60405161026293929190612263565b60405180910390f35b61028560048036038101906102809190611e39565b61125f565b6040516102929190611d33565b60405180910390f35b6102b560048036038101906102b0919061229a565b6112c9565b6040516102c29190612425565b60405180910390f35b6102d3611584565b6040516102e09190611d67565b60405180910390f35b61030360048036038101906102fe919061229a565b61158b565b60405161031697969594939291906124a0565b60405180910390f35b6103396004803603810190610334919061229a565b611738565b604051610346919061260e565b60405180910390f35b610357611845565b6040516103649190611d67565b60405180910390f35b61038760048036038101906103829190611e39565b611869565b005b6103a3600480360381019061039e9190612630565b61188b565b6040516103b0919061270c565b60405180910390f35b6103c1611922565b6040516103ce9190611d67565b60405180910390f35b60007f7965db0b000000000000000000000000000000000000000000000000000000007bffffffffffffffffffffffffffffffffffffffffffffffffffffffff1916827bffffffffffffffffffffffffffffffffffffffffffffffffffffffff1916148061044a575061044982611946565b5b9050919050565b7f2a5f906c256a5d799494fcd066e1f6c077689de1cdb65052a1624de4bace99bf81565b6000806000838152602001908152602001600020600101549050919050565b61049d82610475565b6104a6816119b0565b6104b083836119c4565b50505050565b6104be611ab5565b73ffffffffffffffffffffffffffffffffffffffff168173ffffffffffffffffffffffffffffffffffffffff1614610522576040517f6697b23200000000000000000000000000000000000000000000000000000000815260040160405180910390fd5b61052c8282611abd565b505050565b600060016000848152602001908152602001600020600001540361058a576040517f08c379a00000000000000000000000000000000000000000000000000000000081526004016105819061277a565b60405180910390fd5b60006001600084815260200190815260200160002060040160169054906101000a900460ff169050600160068111156105c6576105c56121dd565b5b8260068111156105d9576105d86121dd565b5b036106b3576106087f8eb467f061ca67f42a2d2ca4a346fc9fb645efc0ba75056ee9f71c3a0ccc10a83361125f565b610647576040517f08c379a000000000000000000000000000000000000000000000000000000000815260040161063e9061280c565b60405180910390fd5b6000600681111561065b5761065a6121dd565b5b81600681111561066e5761066d6121dd565b5b146106ae576040517f08c379a00000000000000000000000000000000000000000000000000000000081526004016106a590612878565b60405180910390fd5b610bf7565b600260068111156106c7576106c66121dd565b5b8260068111156106da576106d96121dd565b5b036107b4576107097ffbd454f36a7e1a388bd6fc3ab10d434aa4578f811acbbcf33afb1c697486313c3361125f565b610748576040517f08c379a000000000000000000000000000000000000000000000000000000000815260040161073f9061290a565b60405180910390fd5b6001600681111561075c5761075b6121dd565b5b81600681111561076f5761076e6121dd565b5b146107af576040517f08c379a00000000000000000000000000000000000000000000000000000000081526004016107a690612878565b60405180910390fd5b610bf6565b600360068111156107c8576107c76121dd565b5b8260068111156107db576107da6121dd565b5b036108b55761080a7ffbd454f36a7e1a388bd6fc3ab10d434aa4578f811acbbcf33afb1c697486313c3361125f565b610849576040517f08c379a00000000000000000000000000000000000000000000000000000000081526004016108409061299c565b60405180910390fd5b6002600681111561085d5761085c6121dd565b5b8160068111156108705761086f6121dd565b5b146108b0576040517f08c379a00000000000000000000000000000000000000000000000000000000081526004016108a790612878565b60405180910390fd5b610bf5565b600460068111156108c9576108c86121dd565b5b8260068111156108dc576108db6121dd565b5b036109b65761090b7f2a5f906c256a5d799494fcd066e1f6c077689de1cdb65052a1624de4bace99bf3361125f565b61094a576040517f08c379a000000000000000000000000000000000000000000000000000000000815260040161094190612a2e565b60405180910390fd5b6003600681111561095e5761095d6121dd565b5b816006811115610971576109706121dd565b5b146109b1576040517f08c379a00000000000000000000000000000000000000000000000000000000081526004016109a890612878565b60405180910390fd5b610bf4565b600560068111156109ca576109c96121dd565b5b8260068111156109dd576109dc6121dd565b5b03610ab757610a0c7f2a5f906c256a5d799494fcd066e1f6c077689de1cdb65052a1624de4bace99bf3361125f565b610a4b576040517f08c379a0000000000000000000000000000000000000000000000000000000008152600401610a4290612a9a565b60405180910390fd5b60046006811115610a5f57610a5e6121dd565b5b816006811115610a7257610a716121dd565b5b14610ab2576040517f08c379a0000000000000000000000000000000000000000000000000000000008152600401610aa990612878565b60405180910390fd5b610bf3565b600680811115610aca57610ac96121dd565b5b826006811115610add57610adc6121dd565b5b03610bb757610b0c7f2a5f906c256a5d799494fcd066e1f6c077689de1cdb65052a1624de4bace99bf3361125f565b610b4b576040517f08c379a0000000000000000000000000000000000000000000000000000000008152600401610b4290612b06565b60405180910390fd5b60056006811115610b5f57610b5e6121dd565b5b816006811115610b7257610b716121dd565b5b14610bb2576040517f08c379a0000000000000000000000000000000000000000000000000000000008152600401610ba990612878565b60405180910390fd5b610bf2565b6040517f08c379a0000000000000000000000000000000000000000000000000000000008152600401610be990612b72565b60405180910390fd5b5b5b5b5b5b816001600085815260200190815260200160002060040160166101000a81548160ff02191690836006811115610c3057610c2f6121dd565b5b0217905550336001600085815260200190815260200160002060040160026101000a81548173ffffffffffffffffffffffffffffffffffffffff021916908373ffffffffffffffffffffffffffffffffffffffff160217905550600260008481526020019081526020016000206040518060600160405280846006811115610cbb57610cba6121dd565b5b81526020013373ffffffffffffffffffffffffffffffffffffffff16815260200142815250908060018154018082558091505060019003906000526020600020906002020160009091909190915060008201518160000160006101000a81548160ff02191690836006811115610d3457610d336121dd565b5b021790555060208201518160000160016101000a81548173ffffffffffffffffffffffffffffffffffffffff021916908373ffffffffffffffffffffffffffffffffffffffff1602179055506040820151816001015550503373ffffffffffffffffffffffffffffffffffffffff16837f16ad05ce3d778c4a2ba55f55814ad9f3e606fe0c042972def94655ed8e1c31cc84604051610dd39190612b92565b60405180910390a3505050565b60036020528160005260406000208181548110610dfc57600080fd5b90600052602060002001600091509150505481565b7f8eb467f061ca67f42a2d2ca4a346fc9fb645efc0ba75056ee9f71c3a0ccc10a8610e3b816119b0565b6000600160008781526020019081526020016000206000015414610e94576040517f08c379a0000000000000000000000000000000000000000000000000000000008152600401610e8b90612bf9565b60405180910390fd5b6040518060e001604052808681526020013373ffffffffffffffffffffffffffffffffffffffff1681526020018581526020018481526020018361ffff1681526020013373ffffffffffffffffffffffffffffffffffffffff16815260200160006006811115610f0757610f066121dd565b5b815250600160008781526020019081526020016000206000820151816000015560208201518160010160006101000a81548173ffffffffffffffffffffffffffffffffffffffff021916908373ffffffffffffffffffffffffffffffffffffffff1602179055506040820151816002019081610f839190612e25565b506060820151816003019081610f999190612e25565b5060808201518160040160006101000a81548161ffff021916908361ffff16021790555060a08201518160040160026101000a81548173ffffffffffffffffffffffffffffffffffffffff021916908373ffffffffffffffffffffffffffffffffffffffff16021790555060c08201518160040160166101000a81548160ff0219169083600681111561102f5761102e6121dd565b5b0217905550905050600360003373ffffffffffffffffffffffffffffffffffffffff1673ffffffffffffffffffffffffffffffffffffffff168152602001908152602001600020859080600181540180825580915050600190039060005260206000200160009091909190915055600260008681526020019081526020016000206040518060600160405280600060068111156110cf576110ce6121dd565b5b81526020013373ffffffffffffffffffffffffffffffffffffffff16815260200142815250908060018154018082558091505060019003906000526020600020906002020160009091909190915060008201518160000160006101000a81548160ff02191690836006811115611148576111476121dd565b5b021790555060208201518160000160016101000a81548173ffffffffffffffffffffffffffffffffffffffff021916908373ffffffffffffffffffffffffffffffffffffffff1602179055506040820151816001015550503373ffffffffffffffffffffffffffffffffffffffff16857f38d48d478ab5d7ee925562ed733fa2cb273033dddd953fb665168102fa3d3e0260405160405180910390a35050505050565b6002602052816000526040600020818154811061120757600080fd5b9060005260206000209060020201600091509150508060000160009054906101000a900460ff16908060000160019054906101000a900473ffffffffffffffffffffffffffffffffffffffff16908060010154905083565b600080600084815260200190815260200160002060000160008373ffffffffffffffffffffffffffffffffffffffff1673ffffffffffffffffffffffffffffffffffffffff16815260200190815260200160002060009054906101000a900460ff16905092915050565b6112d1611c00565b600060016000848152602001908152602001600020600001540361132a576040517f08c379a000000000000000000000000000000000000000000000000000000000815260040161132190612f43565b60405180910390fd5b600160008381526020019081526020016000206040518060e0016040529081600082015481526020016001820160009054906101000a900473ffffffffffffffffffffffffffffffffffffffff1673ffffffffffffffffffffffffffffffffffffffff1673ffffffffffffffffffffffffffffffffffffffff1681526020016002820180546113b890612c48565b80601f01602080910402602001604051908101604052809291908181526020018280546113e490612c48565b80156114315780601f1061140657610100808354040283529160200191611431565b820191906000526020600020905b81548152906001019060200180831161141457829003601f168201915b5050505050815260200160038201805461144a90612c48565b80601f016020809104026020016040519081016040528092919081815260200182805461147690612c48565b80156114c35780601f10611498576101008083540402835291602001916114c3565b820191906000526020600020905b8154815290600101906020018083116114a657829003601f168201915b505050505081526020016004820160009054906101000a900461ffff1661ffff1661ffff1681526020016004820160029054906101000a900473ffffffffffffffffffffffffffffffffffffffff1673ffffffffffffffffffffffffffffffffffffffff1673ffffffffffffffffffffffffffffffffffffffff1681526020016004820160169054906101000a900460ff166006811115611567576115666121dd565b5b6006811115611579576115786121dd565b5b815250509050919050565b6000801b81565b60016020528060005260406000206000915090508060000154908060010160009054906101000a900473ffffffffffffffffffffffffffffffffffffffff16908060020180546115da90612c48565b80601f016020809104026020016040519081016040528092919081815260200182805461160690612c48565b80156116535780601f1061162857610100808354040283529160200191611653565b820191906000526020600020905b81548152906001019060200180831161163657829003601f168201915b50505050509080600301805461166890612c48565b80601f016020809104026020016040519081016040528092919081815260200182805461169490612c48565b80156116e15780601f106116b6576101008083540402835291602001916116e1565b820191906000526020600020905b8154815290600101906020018083116116c457829003601f168201915b5050505050908060040160009054906101000a900461ffff16908060040160029054906101000a900473ffffffffffffffffffffffffffffffffffffffff16908060040160169054906101000a900460ff16905087565b606060026000838152602001908152602001600020805480602002602001604051908101604052809291908181526020016000905b8282101561183a57838290600052602060002090600202016040518060600160405290816000820160009054906101000a900460ff1660068111156117b5576117b46121dd565b5b60068111156117c7576117c66121dd565b5b81526020016000820160019054906101000a900473ffffffffffffffffffffffffffffffffffffffff1673ffffffffffffffffffffffffffffffffffffffff1673ffffffffffffffffffffffffffffffffffffffff1681526020016001820154815250508152602001906001019061176d565b505050509050919050565b7f8eb467f061ca67f42a2d2ca4a346fc9fb645efc0ba75056ee9f71c3a0ccc10a881565b61187282610475565b61187b816119b0565b6118858383611abd565b50505050565b6060600360008373ffffffffffffffffffffffffffffffffffffffff1673ffffffffffffffffffffffffffffffffffffffff16815260200190815260200160002080548060200260200160405190810160405280929190818152602001828054801561191657602002820191906000526020600020905b815481526020019060010190808311611902575b50505050509050919050565b7ffbd454f36a7e1a388bd6fc3ab10d434aa4578f811acbbcf33afb1c697486313c81565b60007f01ffc9a7000000000000000000000000000000000000000000000000000000007bffffffffffffffffffffffffffffffffffffffffffffffffffffffff1916827bffffffffffffffffffffffffffffffffffffffffffffffffffffffff1916149050919050565b6119c1816119bc611ab5565b611baf565b50565b60006119d0838361125f565b611aaa57600160008085815260200190815260200160002060000160008473ffffffffffffffffffffffffffffffffffffffff1673ffffffffffffffffffffffffffffffffffffffff16815260200190815260200160002060006101000a81548160ff021916908315150217905550611a47611ab5565b73ffffffffffffffffffffffffffffffffffffffff168273ffffffffffffffffffffffffffffffffffffffff16847f2f8788117e7eff1d82e926ec794901d17c78024a50270940304540a733656f0d60405160405180910390a460019050611aaf565b600090505b92915050565b600033905090565b6000611ac9838361125f565b15611ba457600080600085815260200190815260200160002060000160008473ffffffffffffffffffffffffffffffffffffffff1673ffffffffffffffffffffffffffffffffffffffff16815260200190815260200160002060006101000a81548160ff021916908315150217905550611b41611ab5565b73ffffffffffffffffffffffffffffffffffffffff168273ffffffffffffffffffffffffffffffffffffffff16847ff6391f5c32d9c69d2a47ea670b442974b53935d1edc7fd64eb21e047a839171b60405160405180910390a460019050611ba9565b600090505b92915050565b611bb9828261125f565b611bfc5780826040517fe2517d3f000000000000000000000000000000000000000000000000000000008152600401611bf3929190612f63565b60405180910390fd5b5050565b6040518060e0016040528060008152602001600073ffffffffffffffffffffffffffffffffffffffff1681526020016060815260200160608152602001600061ffff168152602001600073ffffffffffffffffffffffffffffffffffffffff16815260200160006006811115611c7957611c786121dd565b5b81525090565b6000604051905090565b600080fd5b600080fd5b60007fffffffff0000000000000000000000000000000000000000000000000000000082169050919050565b611cc881611c93565b8114611cd357600080fd5b50565b600081359050611ce581611cbf565b92915050565b600060208284031215611d0157611d00611c89565b5b6000611d0f84828501611cd6565b91505092915050565b60008115159050919050565b611d2d81611d18565b82525050565b6000602082019050611d486000830184611d24565b92915050565b6000819050919050565b611d6181611d4e565b82525050565b6000602082019050611d7c6000830184611d58565b92915050565b611d8b81611d4e565b8114611d9657600080fd5b50565b600081359050611da881611d82565b92915050565b600060208284031215611dc457611dc3611c89565b5b6000611dd284828501611d99565b91505092915050565b600073ffffffffffffffffffffffffffffffffffffffff82169050919050565b6000611e0682611ddb565b9050919050565b611e1681611dfb565b8114611e2157600080fd5b50565b600081359050611e3381611e0d565b92915050565b60008060408385031215611e5057611e4f611c89565b5b6000611e5e85828601611d99565b9250506020611e6f85828601611e24565b9150509250929050565b6000819050919050565b611e8c81611e79565b8114611e9757600080fd5b50565b600081359050611ea981611e83565b92915050565b60078110611ebc57600080fd5b50565b600081359050611ece81611eaf565b92915050565b60008060408385031215611eeb57611eea611c89565b5b6000611ef985828601611e9a565b9250506020611f0a85828601611ebf565b9150509250929050565b60008060408385031215611f2b57611f2a611c89565b5b6000611f3985828601611e24565b9250506020611f4a85828601611e9a565b9150509250929050565b611f5d81611e79565b82525050565b6000602082019050611f786000830184611f54565b92915050565b600080fd5b600080fd5b6000601f19601f8301169050919050565b7f4e487b7100000000000000000000000000000000000000000000000000000000600052604160045260246000fd5b611fd182611f88565b810181811067ffffffffffffffff82111715611ff057611fef611f99565b5b80604052505050565b6000612003611c7f565b905061200f8282611fc8565b919050565b600067ffffffffffffffff82111561202f5761202e611f99565b5b61203882611f88565b9050602081019050919050565b82818337600083830152505050565b600061206761206284612014565b611ff9565b90508281526020810184848401111561208357612082611f83565b5b61208e848285612045565b509392505050565b600082601f8301126120ab576120aa611f7e565b5b81356120bb848260208601612054565b91505092915050565b600061ffff82169050919050565b6120db816120c4565b81146120e657600080fd5b50565b6000813590506120f8816120d2565b92915050565b6000806000806080858703121561211857612117611c89565b5b600061212687828801611e9a565b945050602085013567ffffffffffffffff81111561214757612146611c8e565b5b61215387828801612096565b935050604085013567ffffffffffffffff81111561217457612173611c8e565b5b61218087828801612096565b9250506060612191878288016120e9565b91505092959194509250565b600080604083850312156121b4576121b3611c89565b5b60006121c285828601611e9a565b92505060206121d385828601611e9a565b9150509250929050565b7f4e487b7100000000000000000000000000000000000000000000000000000000600052602160045260246000fd5b6007811061221d5761221c6121dd565b5b50565b600081905061222e8261220c565b919050565b600061223e82612220565b9050919050565b61224e81612233565b82525050565b61225d81611dfb565b82525050565b60006060820190506122786000830186612245565b6122856020830185612254565b6122926040830184611f54565b949350505050565b6000602082840312156122b0576122af611c89565b5b60006122be84828501611e9a565b91505092915050565b6122d081611e79565b82525050565b6122df81611dfb565b82525050565b600081519050919050565b600082825260208201905092915050565b60005b8381101561231f578082015181840152602081019050612304565b60008484015250505050565b6000612336826122e5565b61234081856122f0565b9350612350818560208601612301565b61235981611f88565b840191505092915050565b61236d816120c4565b82525050565b61237c81612233565b82525050565b600060e08301600083015161239a60008601826122c7565b5060208301516123ad60208601826122d6565b50604083015184820360408601526123c5828261232b565b915050606083015184820360608601526123df828261232b565b91505060808301516123f46080860182612364565b5060a083015161240760a08601826122d6565b5060c083015161241a60c0860182612373565b508091505092915050565b6000602082019050818103600083015261243f8184612382565b905092915050565b600082825260208201905092915050565b6000612463826122e5565b61246d8185612447565b935061247d818560208601612301565b61248681611f88565b840191505092915050565b61249a816120c4565b82525050565b600060e0820190506124b5600083018a611f54565b6124c26020830189612254565b81810360408301526124d48188612458565b905081810360608301526124e88187612458565b90506124f76080830186612491565b61250460a0830185612254565b61251160c0830184612245565b98975050505050505050565b600081519050919050565b600082825260208201905092915050565b6000819050602082019050919050565b60608201600082015161255f6000850182612373565b50602082015161257260208501826122d6565b50604082015161258560408501826122c7565b50505050565b60006125978383612549565b60608301905092915050565b6000602082019050919050565b60006125bb8261251d565b6125c58185612528565b93506125d083612539565b8060005b838110156126015781516125e8888261258b565b97506125f3836125a3565b9250506001810190506125d4565b5085935050505092915050565b6000602082019050818103600083015261262881846125b0565b905092915050565b60006020828403121561264657612645611c89565b5b600061265484828501611e24565b91505092915050565b600081519050919050565b600082825260208201905092915050565b6000819050602082019050919050565b600061269583836122c7565b60208301905092915050565b6000602082019050919050565b60006126b98261265d565b6126c38185612668565b93506126ce83612679565b8060005b838110156126ff5781516126e68882612689565b97506126f1836126a1565b9250506001810190506126d2565b5085935050505092915050565b6000602082019050818103600083015261272681846126ae565b905092915050565b7f426174636820646f6573206e6f74206578697374000000000000000000000000600082015250565b6000612764601483612447565b915061276f8261272e565b602082019050919050565b6000602082019050818103600083015261279381612757565b9050919050565b7f4f6e6c792070726f6475636572732063616e207368697020746f20646973747260008201527f696275746f720000000000000000000000000000000000000000000000000000602082015250565b60006127f6602683612447565b91506128018261279a565b604082019050919050565b60006020820190508181036000830152612825816127e9565b9050919050565b7f496e76616c696420737461747573207472616e736974696f6e00000000000000600082015250565b6000612862601983612447565b915061286d8261282c565b602082019050919050565b6000602082019050818103600083015261289181612855565b9050919050565b7f4f6e6c79206469737472696275746f72732063616e207265636569766520667260008201527f6f6d2070726f6475636572000000000000000000000000000000000000000000602082015250565b60006128f4602b83612447565b91506128ff82612898565b604082019050919050565b60006020820190508181036000830152612923816128e7565b9050919050565b7f4f6e6c79206469737472696275746f72732063616e207368697020746f20726560008201527f7461696c65720000000000000000000000000000000000000000000000000000602082015250565b6000612986602683612447565b91506129918261292a565b604082019050919050565b600060208201905081810360008301526129b581612979565b9050919050565b7f4f6e6c792072657461696c6572732063616e20726563656976652066726f6d2060008201527f6469737472696275746f72000000000000000000000000000000000000000000602082015250565b6000612a18602b83612447565b9150612a23826129bc565b604082019050919050565b60006020820190508181036000830152612a4781612a0b565b9050919050565b7f4f6e6c792072657461696c6572732063616e206c69737420666f722073616c65600082015250565b6000612a84602083612447565b9150612a8f82612a4e565b602082019050919050565b60006020820190508181036000830152612ab381612a77565b9050919050565b7f4f6e6c792072657461696c6572732063616e206d61726b20617320736f6c6400600082015250565b6000612af0601f83612447565b9150612afb82612aba565b602082019050919050565b60006020820190508181036000830152612b1f81612ae3565b9050919050565b7f556e737570706f72746564207374617475732075706461746500000000000000600082015250565b6000612b5c601983612447565b9150612b6782612b26565b602082019050919050565b60006020820190508181036000830152612b8b81612b4f565b9050919050565b6000602082019050612ba76000830184612245565b92915050565b7f426174636820616c726561647920657869737473000000000000000000000000600082015250565b6000612be3601483612447565b9150612bee82612bad565b602082019050919050565b60006020820190508181036000830152612c1281612bd6565b9050919050565b7f4e487b7100000000000000000000000000000000000000000000000000000000600052602260045260246000fd5b60006002820490506001821680612c6057607f821691505b602082108103612c7357612c72612c19565b5b50919050565b60008190508160005260206000209050919050565b60006020601f8301049050919050565b600082821b905092915050565b600060088302612cdb7fffffffffffffffffffffffffffffffffffffffffffffffffffffffffffffffff82612c9e565b612ce58683612c9e565b95508019841693508086168417925050509392505050565b6000819050919050565b6000612d22612d1d612d1884611e79565b612cfd565b611e79565b9050919050565b6000819050919050565b612d3c83612d07565b612d50612d4882612d29565b848454612cab565b825550505050565b600090565b612d65612d58565b612d70818484612d33565b505050565b5b81811015612d9457612d89600082612d5d565b600181019050612d76565b5050565b601f821115612dd957612daa81612c79565b612db384612c8e565b81016020851015612dc2578190505b612dd6612dce85612c8e565b830182612d75565b50505b505050565b600082821c905092915050565b6000612dfc60001984600802612dde565b1980831691505092915050565b6000612e158383612deb565b9150826002028217905092915050565b612e2e826122e5565b67ffffffffffffffff811115612e4757612e46611f99565b5b612e518254612c48565b612e5c828285612d98565b600060209050601f831160018114612e8f5760008415612e7d578287015190505b612e878582612e09565b865550612eef565b601f198416612e9d86612c79565b60005b82811015612ec557848901518255600182019150602085019450602081019050612ea0565b86831015612ee25784890151612ede601f891682612deb565b8355505b6001600288020188555050505b505050505050565b7f4261746368206e6f7420666f756e640000000000000000000000000000000000600082015250565b6000612f2d600f83612447565b9150612f3882612ef7565b602082019050919050565b60006020820190508181036000830152612f5c81612f20565b9050919050565b6000604082019050612f786000830185612254565b612f856020830184611d58565b939250505056fea26469706673582212206d0f3d4255667368b286eddf42522b18be7512a3a0526a352d28e99fec2f8bc764736f6c634300081c0033",
  "linkReferences": {},
  "deployedLinkReferences": {}
}